{
  "contractName": "Marketplace",
  "abi": [
    {
      "constant": true,
      "inputs": [],
      "name": "countListings",
      "outputs": [
        {
          "name": "",
          "type": "uint256"
        }
      ],
      "payable": false,
      "stateMutability": "view",
      "type": "function",
      "signature": "0x690e7388"
    },
    {
      "constant": true,
      "inputs": [
        {
          "name": "",
          "type": "uint256"
        }
      ],
      "name": "listings",
      "outputs": [
        {
          "name": "id",
          "type": "uint256"
        },
        {
          "name": "currOwner",
          "type": "address"
        },
        {
          "name": "rentedBy",
          "type": "address"
        },
        {
          "name": "priceForRent",
          "type": "uint256"
        },
        {
          "name": "priceForSale",
          "type": "uint256"
        },
        {
          "name": "title",
          "type": "string"
        },
        {
          "name": "description",
          "type": "string"
        },
        {
          "name": "addrL1",
          "type": "string"
        },
        {
          "name": "pincode",
          "type": "string"
        },
        {
          "name": "forSale",
          "type": "bool"
        },
        {
          "name": "forRent",
          "type": "bool"
        }
      ],
      "payable": false,
      "stateMutability": "view",
      "type": "function",
      "signature": "0xde74e57b"
    },
    {
      "anonymous": false,
      "inputs": [
        {
          "indexed": false,
          "name": "id",
          "type": "uint256"
        },
        {
          "indexed": false,
          "name": "currOwner",
          "type": "address"
        },
        {
          "indexed": false,
          "name": "rentedBy",
          "type": "address"
        },
        {
          "indexed": false,
          "name": "priceForRent",
          "type": "uint256"
        },
        {
          "indexed": false,
          "name": "priceForSale",
          "type": "uint256"
        },
        {
          "indexed": false,
          "name": "title",
          "type": "string"
        },
        {
          "indexed": false,
          "name": "description",
          "type": "string"
        },
        {
          "indexed": false,
          "name": "addrL1",
          "type": "string"
        },
        {
          "indexed": false,
          "name": "pincode",
          "type": "string"
        },
        {
          "indexed": false,
          "name": "forSale",
          "type": "bool"
        },
        {
          "indexed": false,
          "name": "forRent",
          "type": "bool"
        }
      ],
      "name": "propertyListed",
      "type": "event",
      "signature": "0x83b7b53a3dfb6f1f8aaf956e58acf984f335cafcc292981580a64d734c6f6dac"
    },
    {
      "anonymous": false,
      "inputs": [
        {
          "indexed": false,
          "name": "id",
          "type": "uint256"
        },
        {
          "indexed": false,
          "name": "currOwner",
          "type": "address"
        },
        {
          "indexed": false,
          "name": "rentedBy",
          "type": "address"
        },
        {
          "indexed": false,
          "name": "priceForRent",
          "type": "uint256"
        },
        {
          "indexed": false,
          "name": "priceForSale",
          "type": "uint256"
        },
        {
          "indexed": false,
          "name": "title",
          "type": "string"
        },
        {
          "indexed": false,
          "name": "description",
          "type": "string"
        },
        {
          "indexed": false,
          "name": "addrL1",
          "type": "string"
        },
        {
          "indexed": false,
          "name": "pincode",
          "type": "string"
        },
        {
          "indexed": false,
          "name": "forSale",
          "type": "bool"
        },
        {
          "indexed": false,
          "name": "forRent",
          "type": "bool"
        }
      ],
      "name": "propertyPurchased",
      "type": "event",
      "signature": "0xceef850c33711b0ff9cc709b7a39c8285d14acbccf64ea377f7d5ffc311c6a4f"
    },
    {
      "constant": false,
      "inputs": [
        {
          "name": "_title",
          "type": "string"
        },
        {
          "name": "_description",
          "type": "string"
        },
        {
          "name": "_addrL1",
          "type": "string"
        },
        {
          "name": "_pincode",
          "type": "string"
        },
        {
          "name": "_forSale",
          "type": "bool"
        },
        {
          "name": "_forRent",
          "type": "bool"
        },
        {
          "name": "_priceForRent",
          "type": "uint256"
        },
        {
          "name": "_priceForSale",
          "type": "uint256"
        }
      ],
      "name": "createProduct",
      "outputs": [],
      "payable": false,
      "stateMutability": "nonpayable",
      "type": "function",
      "signature": "0xa916bd82"
    },
    {
      "constant": false,
      "inputs": [
        {
          "name": "_id",
          "type": "uint256"
        }
      ],
      "name": "purchaceProperty",
      "outputs": [],
      "payable": true,
      "stateMutability": "payable",
      "type": "function",
      "signature": "0x780fc0ac"
    }
  ],
  "bytecode": "0x60806040526000805534801561001457600080fd5b50611973806100246000396000f3fe608060405260043610610062576000357c0100000000000000000000000000000000000000000000000000000000900463ffffffff168063690e738814610067578063780fc0ac14610092578063a916bd82146100c0578063de74e57b1461037a575b600080fd5b34801561007357600080fd5b5061007c610603565b6040518082815260200191505060405180910390f35b6100be600480360360208110156100a857600080fd5b8101908080359060200190929190505050610609565b005b3480156100cc57600080fd5b5061037860048036036101008110156100e457600080fd5b810190808035906020019064010000000081111561010157600080fd5b82018360208201111561011357600080fd5b8035906020019184600183028401116401000000008311171561013557600080fd5b91908080601f016020809104026020016040519081016040528093929190818152602001838380828437600081840152601f19601f8201169050808301925050505050505091929192908035906020019064010000000081111561019857600080fd5b8201836020820111156101aa57600080fd5b803590602001918460018302840111640100000000831117156101cc57600080fd5b91908080601f016020809104026020016040519081016040528093929190818152602001838380828437600081840152601f19601f8201169050808301925050505050505091929192908035906020019064010000000081111561022f57600080fd5b82018360208201111561024157600080fd5b8035906020019184600183028401116401000000008311171561026357600080fd5b91908080601f016020809104026020016040519081016040528093929190818152602001838380828437600081840152601f19601f820116905080830192505050505050509192919290803590602001906401000000008111156102c657600080fd5b8201836020820111156102d857600080fd5b803590602001918460018302840111640100000000831117156102fa57600080fd5b91908080601f016020809104026020016040519081016040528093929190818152602001838380828437600081840152601f19601f820116905080830192505050505050509192919290803515159060200190929190803515159060200190929190803590602001909291908035906020019092919050505061101b565b005b34801561038657600080fd5b506103b36004803603602081101561039d57600080fd5b8101908080359060200190929190505050611503565b604051808c81526020018b73ffffffffffffffffffffffffffffffffffffffff1673ffffffffffffffffffffffffffffffffffffffff1681526020018a73ffffffffffffffffffffffffffffffffffffffff1673ffffffffffffffffffffffffffffffffffffffff16815260200189815260200188815260200180602001806020018060200180602001871515151581526020018615151515815260200185810385528b818151815260200191508051906020019080838360005b8381101561048957808201518184015260208101905061046e565b50505050905090810190601f1680156104b65780820380516001836020036101000a031916815260200191505b5085810384528a818151815260200191508051906020019080838360005b838110156104ef5780820151818401526020810190506104d4565b50505050905090810190601f16801561051c5780820380516001836020036101000a031916815260200191505b50858103835289818151815260200191508051906020019080838360005b8381101561055557808201518184015260208101905061053a565b50505050905090810190601f1680156105825780820380516001836020036101000a031916815260200191505b50858103825288818151815260200191508051906020019080838360005b838110156105bb5780820151818401526020810190506105a0565b50505050905090810190601f1680156105e85780820380516001836020036101000a031916815260200191505b509f5050505050505050505050505050505060405180910390f35b60005481565b600115156001600083815260200190815260200160002060090160009054906101000a900460ff16151514151561063f57600080fd5b610647611817565b600160008381526020019081526020016000206101606040519081016040529081600082015481526020016001820160009054906101000a900473ffffffffffffffffffffffffffffffffffffffff1673ffffffffffffffffffffffffffffffffffffffff1673ffffffffffffffffffffffffffffffffffffffff1681526020016002820160009054906101000a900473ffffffffffffffffffffffffffffffffffffffff1673ffffffffffffffffffffffffffffffffffffffff1673ffffffffffffffffffffffffffffffffffffffff1681526020016003820154815260200160048201548152602001600582018054600181600116156101000203166002900480601f0160208091040260200160405190810160405280929190818152602001828054600181600116156101000203166002900480156107ca5780601f1061079f576101008083540402835291602001916107ca565b820191906000526020600020905b8154815290600101906020018083116107ad57829003601f168201915b50505050508152602001600682018054600181600116156101000203166002900480601f01602080910402602001604051908101604052809291908181526020018280546001816001161561010002031660029004801561086c5780601f106108415761010080835404028352916020019161086c565b820191906000526020600020905b81548152906001019060200180831161084f57829003601f168201915b50505050508152602001600782018054600181600116156101000203166002900480601f01602080910402602001604051908101604052809291908181526020018280546001816001161561010002031660029004801561090e5780601f106108e35761010080835404028352916020019161090e565b820191906000526020600020905b8154815290600101906020018083116108f157829003601f168201915b50505050508152602001600882018054600181600116156101000203166002900480601f0160208091040260200160405190810160405280929190818152602001828054600181600116156101000203166002900480156109b05780601f10610985576101008083540402835291602001916109b0565b820191906000526020600020905b81548152906001019060200180831161099357829003601f168201915b505050505081526020016009820160009054906101000a900460ff161515151581526020016009820160019054906101000a900460ff161515151581525050905060008160200151905033826020019073ffffffffffffffffffffffffffffffffffffffff16908173ffffffffffffffffffffffffffffffffffffffff168152505081600160008581526020019081526020016000206000820151816000015560208201518160010160006101000a81548173ffffffffffffffffffffffffffffffffffffffff021916908373ffffffffffffffffffffffffffffffffffffffff16021790555060408201518160020160006101000a81548173ffffffffffffffffffffffffffffffffffffffff021916908373ffffffffffffffffffffffffffffffffffffffff160217905550606082015181600301556080820151816004015560a0820151816005019080519060200190610b0e9291906118a2565b5060c0820151816006019080519060200190610b2b9291906118a2565b5060e0820151816007019080519060200190610b489291906118a2565b50610100820151816008019080519060200190610b669291906118a2565b506101208201518160090160006101000a81548160ff0219169083151502179055506101408201518160090160016101000a81548160ff0219169083151502179055509050508073ffffffffffffffffffffffffffffffffffffffff166108fc349081150290604051600060405180830381858888f19350505050158015610bf2573d6000803e3d6000fd5b507fceef850c33711b0ff9cc709b7a39c8285d14acbccf64ea377f7d5ffc311c6a4f6000546001600086815260200190815260200160002060010160009054906101000a900473ffffffffffffffffffffffffffffffffffffffff166001600087815260200190815260200160002060020160009054906101000a900473ffffffffffffffffffffffffffffffffffffffff1660016000888152602001908152602001600020600301546001600089815260200190815260200160002060040154600160008a8152602001908152602001600020600501600160008b8152602001908152602001600020600601600160008c8152602001908152602001600020600701600160008d8152602001908152602001600020600801600160008e815260200190815260200160002060090160009054906101000a900460ff16600160008f815260200190815260200160002060090160019054906101000a900460ff16604051808c81526020018b73ffffffffffffffffffffffffffffffffffffffff1673ffffffffffffffffffffffffffffffffffffffff1681526020018a73ffffffffffffffffffffffffffffffffffffffff1673ffffffffffffffffffffffffffffffffffffffff16815260200189815260200188815260200180602001806020018060200180602001871515151581526020018615151515815260200185810385528b818154600181600116156101000203166002900481526020019150805460018160011615610100020316600290048015610e725780601f10610e4757610100808354040283529160200191610e72565b820191906000526020600020905b815481529060010190602001808311610e5557829003601f168201915b505085810384528a818154600181600116156101000203166002900481526020019150805460018160011615610100020316600290048015610ef55780601f10610eca57610100808354040283529160200191610ef5565b820191906000526020600020905b815481529060010190602001808311610ed857829003601f168201915b5050858103835289818154600181600116156101000203166002900481526020019150805460018160011615610100020316600290048015610f785780601f10610f4d57610100808354040283529160200191610f78565b820191906000526020600020905b815481529060010190602001808311610f5b57829003601f168201915b5050858103825288818154600181600116156101000203166002900481526020019150805460018160011615610100020316600290048015610ffb5780601f10610fd057610100808354040283529160200191610ffb565b820191906000526020600020905b815481529060010190602001808311610fde57829003601f168201915b50509f5050505050505050505050505050505060405180910390a1505050565b60008081548092919060010191905055506000885111151561103c57600080fd5b6000875111151561104c57600080fd5b6000865111151561105c57600080fd5b6000855111151561106c57600080fd5b60008111151561107b57600080fd5b60003390506101606040519081016040528060005481526020018273ffffffffffffffffffffffffffffffffffffffff168152602001600073ffffffffffffffffffffffffffffffffffffffff1681526020018481526020018381526020018a8152602001898152602001888152602001878152602001861515815260200185151581525060016000805481526020019081526020016000206000820151816000015560208201518160010160006101000a81548173ffffffffffffffffffffffffffffffffffffffff021916908373ffffffffffffffffffffffffffffffffffffffff16021790555060408201518160020160006101000a81548173ffffffffffffffffffffffffffffffffffffffff021916908373ffffffffffffffffffffffffffffffffffffffff160217905550606082015181600301556080820151816004015560a08201518160050190805190602001906111dc9291906118a2565b5060c08201518160060190805190602001906111f99291906118a2565b5060e08201518160070190805190602001906112169291906118a2565b506101008201518160080190805190602001906112349291906118a2565b506101208201518160090160006101000a81548160ff0219169083151502179055506101408201518160090160016101000a81548160ff0219169083151502179055509050507f83b7b53a3dfb6f1f8aaf956e58acf984f335cafcc292981580a64d734c6f6dac60005482600086868e8e8e8e8e8e604051808c81526020018b73ffffffffffffffffffffffffffffffffffffffff1673ffffffffffffffffffffffffffffffffffffffff1681526020018a73ffffffffffffffffffffffffffffffffffffffff1673ffffffffffffffffffffffffffffffffffffffff16815260200189815260200188815260200180602001806020018060200180602001871515151581526020018615151515815260200185810385528b818151815260200191508051906020019080838360005b8381101561137f578082015181840152602081019050611364565b50505050905090810190601f1680156113ac5780820380516001836020036101000a031916815260200191505b5085810384528a818151815260200191508051906020019080838360005b838110156113e55780820151818401526020810190506113ca565b50505050905090810190601f1680156114125780820380516001836020036101000a031916815260200191505b50858103835289818151815260200191508051906020019080838360005b8381101561144b578082015181840152602081019050611430565b50505050905090810190601f1680156114785780820380516001836020036101000a031916815260200191505b50858103825288818151815260200191508051906020019080838360005b838110156114b1578082015181840152602081019050611496565b50505050905090810190601f1680156114de5780820380516001836020036101000a031916815260200191505b509f5050505050505050505050505050505060405180910390a1505050505050505050565b60016020528060005260406000206000915090508060000154908060010160009054906101000a900473ffffffffffffffffffffffffffffffffffffffff16908060020160009054906101000a900473ffffffffffffffffffffffffffffffffffffffff1690806003015490806004015490806005018054600181600116156101000203166002900480601f01602080910402602001604051908101604052809291908181526020018280546001816001161561010002031660029004801561160d5780601f106115e25761010080835404028352916020019161160d565b820191906000526020600020905b8154815290600101906020018083116115f057829003601f168201915b505050505090806006018054600181600116156101000203166002900480601f0160208091040260200160405190810160405280929190818152602001828054600181600116156101000203166002900480156116ab5780601f10611680576101008083540402835291602001916116ab565b820191906000526020600020905b81548152906001019060200180831161168e57829003601f168201915b505050505090806007018054600181600116156101000203166002900480601f0160208091040260200160405190810160405280929190818152602001828054600181600116156101000203166002900480156117495780601f1061171e57610100808354040283529160200191611749565b820191906000526020600020905b81548152906001019060200180831161172c57829003601f168201915b505050505090806008018054600181600116156101000203166002900480601f0160208091040260200160405190810160405280929190818152602001828054600181600116156101000203166002900480156117e75780601f106117bc576101008083540402835291602001916117e7565b820191906000526020600020905b8154815290600101906020018083116117ca57829003601f168201915b5050505050908060090160009054906101000a900460ff16908060090160019054906101000a900460ff1690508b565b6101606040519081016040528060008152602001600073ffffffffffffffffffffffffffffffffffffffff168152602001600073ffffffffffffffffffffffffffffffffffffffff1681526020016000815260200160008152602001606081526020016060815260200160608152602001606081526020016000151581526020016000151581525090565b828054600181600116156101000203166002900490600052602060002090601f016020900481019282601f106118e357805160ff1916838001178555611911565b82800160010185558215611911579182015b828111156119105782518255916020019190600101906118f5565b5b50905061191e9190611922565b5090565b61194491905b80821115611940576000816000905550600101611928565b5090565b9056fea165627a7a723058202f6800aa2cfe28e19d6c68f2299b88850afcd6b2a9c1281272d792418d65af710029",
  "source": "pragma solidity ^0.5.0;\r\n\r\ncontract Marketplace {\r\n    uint256 public countListings = 0;\r\n    mapping(uint256 => Property) public listings;\r\n    struct Property {\r\n        uint256 id;\r\n        address payable currOwner;\r\n        address rentedBy;\r\n        uint256 priceForRent;\r\n        uint256 priceForSale;\r\n        string title;\r\n        string description;\r\n        string addrL1;\r\n        string pincode;\r\n        bool forSale;\r\n        bool forRent;\r\n    }\r\n    event propertyListed(\r\n        uint256 id,\r\n        address payable currOwner,\r\n        address rentedBy,\r\n        uint256 priceForRent,\r\n        uint256 priceForSale,\r\n        string title,\r\n        string description,\r\n        string addrL1,\r\n        string pincode,\r\n        bool forSale,\r\n        bool forRent\r\n    );\r\n\r\n    event propertyPurchased(\r\n        uint256 id,\r\n        address payable currOwner,\r\n        address rentedBy,\r\n        uint256 priceForRent,\r\n        uint256 priceForSale,\r\n        string title,\r\n        string description,\r\n        string addrL1,\r\n        string pincode,\r\n        bool forSale,\r\n        bool forRent\r\n    );\r\n\r\n    function createProduct(\r\n        string memory _title,\r\n        string memory _description,\r\n        string memory _addrL1,\r\n        string memory _pincode,\r\n        bool _forSale,\r\n        bool _forRent,\r\n        uint256 _priceForRent,\r\n        uint256 _priceForSale\r\n    ) public {\r\n        countListings++;\r\n        require(bytes(_title).length > 0);\r\n        require(bytes(_description).length > 0);\r\n        require(bytes(_addrL1).length > 0);\r\n        require(bytes(_pincode).length > 0);\r\n        require(_priceForSale > 0);\r\n\r\n        address payable _currOwner = msg.sender;\r\n\r\n        listings[countListings] = Property(\r\n            countListings,\r\n            _currOwner,\r\n            address(0),\r\n            _priceForRent,\r\n            _priceForSale,\r\n            _title,\r\n            _description,\r\n            _addrL1,\r\n            _pincode,\r\n            _forSale,\r\n            _forRent\r\n        );\r\n        emit propertyListed(\r\n            countListings,\r\n            _currOwner,\r\n            address(0),\r\n            _priceForRent,\r\n            _priceForSale,\r\n            _title,\r\n            _description,\r\n            _addrL1,\r\n            _pincode,\r\n            _forSale,\r\n            _forRent\r\n        );\r\n    }\r\n\r\n    function purchaceProperty(uint256 _id) public payable {\r\n        require(listings[_id].forSale == true);\r\n        Property memory _property = listings[_id];\r\n\r\n        address payable _seller = _property.currOwner;\r\n        _property.currOwner = msg.sender;\r\n        listings[_id] = _property;\r\n        address(_seller).transfer(msg.value);\r\n        emit propertyPurchased(\r\n            countListings,\r\n            listings[_id].currOwner,\r\n            listings[_id].rentedBy,\r\n            listings[_id].priceForRent,\r\n            listings[_id].priceForSale,\r\n            listings[_id].title,\r\n            listings[_id].description,\r\n            listings[_id].addrL1,\r\n            listings[_id].pincode,\r\n            listings[_id].forSale,\r\n            listings[_id].forRent\r\n        );\r\n    }\r\n}\r\n",
  "sourcePath": "C:/Users/Sudeep/Desktop/IBC_Work/marketplace/src/contracts/Marketplace.sol",
  "compiler": {
    "name": "solc",
    "version": "0.5.0+commit.1d4f565a.Emscripten.clang"
  },
  "schemaVersion": "3.0.1",
  "updatedAt": "2021-12-13T10:47:26.293Z",
  "devdoc": {
    "methods": {}
  },
  "userdoc": {
    "methods": {}
  }
}