{
  "contractName": "Marketplace",
  "abi": [
    {
      "constant": true,
      "inputs": [],
      "name": "countListings",
      "outputs": [
        {
          "name": "",
          "type": "uint256"
        }
      ],
      "payable": false,
      "stateMutability": "view",
      "type": "function",
      "signature": "0x690e7388"
    },
    {
      "constant": true,
      "inputs": [
        {
          "name": "",
          "type": "uint256"
        }
      ],
      "name": "listings",
      "outputs": [
        {
          "name": "id",
          "type": "uint256"
        },
        {
          "name": "currOwner",
          "type": "address"
        },
        {
          "name": "rentedBy",
          "type": "address"
        },
        {
          "name": "priceForRent",
          "type": "uint256"
        },
        {
          "name": "priceForSale",
          "type": "uint256"
        },
        {
          "name": "title",
          "type": "string"
        },
        {
          "name": "description",
          "type": "string"
        },
        {
          "name": "addrL1",
          "type": "string"
        },
        {
          "name": "pincode",
          "type": "string"
        },
        {
          "name": "forSale",
          "type": "bool"
        },
        {
          "name": "forRent",
          "type": "bool"
        }
      ],
      "payable": false,
      "stateMutability": "view",
      "type": "function",
      "signature": "0xde74e57b"
    },
    {
      "anonymous": false,
      "inputs": [
        {
          "indexed": false,
          "name": "id",
          "type": "uint256"
        },
        {
          "indexed": false,
          "name": "currOwner",
          "type": "address"
        },
        {
          "indexed": false,
          "name": "rentedBy",
          "type": "address"
        },
        {
          "indexed": false,
          "name": "priceForRent",
          "type": "uint256"
        },
        {
          "indexed": false,
          "name": "priceForSale",
          "type": "uint256"
        },
        {
          "indexed": false,
          "name": "title",
          "type": "string"
        },
        {
          "indexed": false,
          "name": "description",
          "type": "string"
        },
        {
          "indexed": false,
          "name": "addrL1",
          "type": "string"
        },
        {
          "indexed": false,
          "name": "pincode",
          "type": "string"
        },
        {
          "indexed": false,
          "name": "forSale",
          "type": "bool"
        },
        {
          "indexed": false,
          "name": "forRent",
          "type": "bool"
        }
      ],
      "name": "propertyListed",
      "type": "event",
      "signature": "0x83b7b53a3dfb6f1f8aaf956e58acf984f335cafcc292981580a64d734c6f6dac"
    },
    {
      "anonymous": false,
      "inputs": [
        {
          "indexed": false,
          "name": "id",
          "type": "uint256"
        },
        {
          "indexed": false,
          "name": "currOwner",
          "type": "address"
        },
        {
          "indexed": false,
          "name": "rentedBy",
          "type": "address"
        },
        {
          "indexed": false,
          "name": "priceForRent",
          "type": "uint256"
        },
        {
          "indexed": false,
          "name": "priceForSale",
          "type": "uint256"
        },
        {
          "indexed": false,
          "name": "title",
          "type": "string"
        },
        {
          "indexed": false,
          "name": "description",
          "type": "string"
        },
        {
          "indexed": false,
          "name": "addrL1",
          "type": "string"
        },
        {
          "indexed": false,
          "name": "pincode",
          "type": "string"
        },
        {
          "indexed": false,
          "name": "forSale",
          "type": "bool"
        },
        {
          "indexed": false,
          "name": "forRent",
          "type": "bool"
        }
      ],
      "name": "propertyPurchased",
      "type": "event",
      "signature": "0xceef850c33711b0ff9cc709b7a39c8285d14acbccf64ea377f7d5ffc311c6a4f"
    },
    {
      "constant": false,
      "inputs": [
        {
          "name": "_title",
          "type": "string"
        },
        {
          "name": "_description",
          "type": "string"
        },
        {
          "name": "_addrL1",
          "type": "string"
        },
        {
          "name": "_pincode",
          "type": "string"
        },
        {
          "name": "_forSale",
          "type": "bool"
        },
        {
          "name": "_forRent",
          "type": "bool"
        },
        {
          "name": "_priceForRent",
          "type": "uint256"
        },
        {
          "name": "_priceForSale",
          "type": "uint256"
        }
      ],
      "name": "createListing",
      "outputs": [],
      "payable": false,
      "stateMutability": "nonpayable",
      "type": "function",
      "signature": "0x8184c49b"
    },
    {
      "constant": false,
      "inputs": [
        {
          "name": "_id",
          "type": "uint256"
        }
      ],
      "name": "purchaceProperty",
      "outputs": [],
      "payable": true,
      "stateMutability": "payable",
      "type": "function",
      "signature": "0x780fc0ac"
    },
    {
      "constant": false,
      "inputs": [
        {
          "name": "_id",
          "type": "uint256"
        },
        {
          "name": "_addr",
          "type": "address"
        }
      ],
      "name": "rentProperty",
      "outputs": [],
      "payable": true,
      "stateMutability": "payable",
      "type": "function",
      "signature": "0xb231942a"
    }
  ],
  "bytecode": "0x60806040526000805534801561001457600080fd5b50611f5b806100246000396000f3fe60806040526004361061006d576000357c0100000000000000000000000000000000000000000000000000000000900463ffffffff168063690e738814610072578063780fc0ac1461009d5780638184c49b146100cb578063b231942a14610385578063de74e57b146103d3575b600080fd5b34801561007e57600080fd5b5061008761065c565b6040518082815260200191505060405180910390f35b6100c9600480360360208110156100b357600080fd5b8101908080359060200190929190505050610662565b005b3480156100d757600080fd5b5061038360048036036101008110156100ef57600080fd5b810190808035906020019064010000000081111561010c57600080fd5b82018360208201111561011e57600080fd5b8035906020019184600183028401116401000000008311171561014057600080fd5b91908080601f016020809104026020016040519081016040528093929190818152602001838380828437600081840152601f19601f820116905080830192505050505050509192919290803590602001906401000000008111156101a357600080fd5b8201836020820111156101b557600080fd5b803590602001918460018302840111640100000000831117156101d757600080fd5b91908080601f016020809104026020016040519081016040528093929190818152602001838380828437600081840152601f19601f8201169050808301925050505050505091929192908035906020019064010000000081111561023a57600080fd5b82018360208201111561024c57600080fd5b8035906020019184600183028401116401000000008311171561026e57600080fd5b91908080601f016020809104026020016040519081016040528093929190818152602001838380828437600081840152601f19601f820116905080830192505050505050509192919290803590602001906401000000008111156102d157600080fd5b8201836020820111156102e357600080fd5b8035906020019184600183028401116401000000008311171561030557600080fd5b91908080601f016020809104026020016040519081016040528093929190818152602001838380828437600081840152601f19601f8201169050808301925050505050505091929192908035151590602001909291908035151590602001909291908035906020019092919080359060200190929190505050611074565b005b6103d16004803603604081101561039b57600080fd5b8101908080359060200190929190803573ffffffffffffffffffffffffffffffffffffffff16906020019092919050505061155d565b005b3480156103df57600080fd5b5061040c600480360360208110156103f657600080fd5b8101908080359060200190929190505050611aeb565b604051808c81526020018b73ffffffffffffffffffffffffffffffffffffffff1673ffffffffffffffffffffffffffffffffffffffff1681526020018a73ffffffffffffffffffffffffffffffffffffffff1673ffffffffffffffffffffffffffffffffffffffff16815260200189815260200188815260200180602001806020018060200180602001871515151581526020018615151515815260200185810385528b818151815260200191508051906020019080838360005b838110156104e25780820151818401526020810190506104c7565b50505050905090810190601f16801561050f5780820380516001836020036101000a031916815260200191505b5085810384528a818151815260200191508051906020019080838360005b8381101561054857808201518184015260208101905061052d565b50505050905090810190601f1680156105755780820380516001836020036101000a031916815260200191505b50858103835289818151815260200191508051906020019080838360005b838110156105ae578082015181840152602081019050610593565b50505050905090810190601f1680156105db5780820380516001836020036101000a031916815260200191505b50858103825288818151815260200191508051906020019080838360005b838110156106145780820151818401526020810190506105f9565b50505050905090810190601f1680156106415780820380516001836020036101000a031916815260200191505b509f5050505050505050505050505050505060405180910390f35b60005481565b600115156001600083815260200190815260200160002060090160009054906101000a900460ff16151514151561069857600080fd5b6106a0611dff565b600160008381526020019081526020016000206101606040519081016040529081600082015481526020016001820160009054906101000a900473ffffffffffffffffffffffffffffffffffffffff1673ffffffffffffffffffffffffffffffffffffffff1673ffffffffffffffffffffffffffffffffffffffff1681526020016002820160009054906101000a900473ffffffffffffffffffffffffffffffffffffffff1673ffffffffffffffffffffffffffffffffffffffff1673ffffffffffffffffffffffffffffffffffffffff1681526020016003820154815260200160048201548152602001600582018054600181600116156101000203166002900480601f0160208091040260200160405190810160405280929190818152602001828054600181600116156101000203166002900480156108235780601f106107f857610100808354040283529160200191610823565b820191906000526020600020905b81548152906001019060200180831161080657829003601f168201915b50505050508152602001600682018054600181600116156101000203166002900480601f0160208091040260200160405190810160405280929190818152602001828054600181600116156101000203166002900480156108c55780601f1061089a576101008083540402835291602001916108c5565b820191906000526020600020905b8154815290600101906020018083116108a857829003601f168201915b50505050508152602001600782018054600181600116156101000203166002900480601f0160208091040260200160405190810160405280929190818152602001828054600181600116156101000203166002900480156109675780601f1061093c57610100808354040283529160200191610967565b820191906000526020600020905b81548152906001019060200180831161094a57829003601f168201915b50505050508152602001600882018054600181600116156101000203166002900480601f016020809104026020016040519081016040528092919081815260200182805460018160011615610100020316600290048015610a095780601f106109de57610100808354040283529160200191610a09565b820191906000526020600020905b8154815290600101906020018083116109ec57829003601f168201915b505050505081526020016009820160009054906101000a900460ff161515151581526020016009820160019054906101000a900460ff161515151581525050905060008160200151905033826020019073ffffffffffffffffffffffffffffffffffffffff16908173ffffffffffffffffffffffffffffffffffffffff168152505081600160008581526020019081526020016000206000820151816000015560208201518160010160006101000a81548173ffffffffffffffffffffffffffffffffffffffff021916908373ffffffffffffffffffffffffffffffffffffffff16021790555060408201518160020160006101000a81548173ffffffffffffffffffffffffffffffffffffffff021916908373ffffffffffffffffffffffffffffffffffffffff160217905550606082015181600301556080820151816004015560a0820151816005019080519060200190610b67929190611e8a565b5060c0820151816006019080519060200190610b84929190611e8a565b5060e0820151816007019080519060200190610ba1929190611e8a565b50610100820151816008019080519060200190610bbf929190611e8a565b506101208201518160090160006101000a81548160ff0219169083151502179055506101408201518160090160016101000a81548160ff0219169083151502179055509050508073ffffffffffffffffffffffffffffffffffffffff166108fc349081150290604051600060405180830381858888f19350505050158015610c4b573d6000803e3d6000fd5b507fceef850c33711b0ff9cc709b7a39c8285d14acbccf64ea377f7d5ffc311c6a4f6000546001600086815260200190815260200160002060010160009054906101000a900473ffffffffffffffffffffffffffffffffffffffff166001600087815260200190815260200160002060020160009054906101000a900473ffffffffffffffffffffffffffffffffffffffff1660016000888152602001908152602001600020600301546001600089815260200190815260200160002060040154600160008a8152602001908152602001600020600501600160008b8152602001908152602001600020600601600160008c8152602001908152602001600020600701600160008d8152602001908152602001600020600801600160008e815260200190815260200160002060090160009054906101000a900460ff16600160008f815260200190815260200160002060090160019054906101000a900460ff16604051808c81526020018b73ffffffffffffffffffffffffffffffffffffffff1673ffffffffffffffffffffffffffffffffffffffff1681526020018a73ffffffffffffffffffffffffffffffffffffffff1673ffffffffffffffffffffffffffffffffffffffff16815260200189815260200188815260200180602001806020018060200180602001871515151581526020018615151515815260200185810385528b818154600181600116156101000203166002900481526020019150805460018160011615610100020316600290048015610ecb5780601f10610ea057610100808354040283529160200191610ecb565b820191906000526020600020905b815481529060010190602001808311610eae57829003601f168201915b505085810384528a818154600181600116156101000203166002900481526020019150805460018160011615610100020316600290048015610f4e5780601f10610f2357610100808354040283529160200191610f4e565b820191906000526020600020905b815481529060010190602001808311610f3157829003601f168201915b5050858103835289818154600181600116156101000203166002900481526020019150805460018160011615610100020316600290048015610fd15780601f10610fa657610100808354040283529160200191610fd1565b820191906000526020600020905b815481529060010190602001808311610fb457829003601f168201915b50508581038252888181546001816001161561010002031660029004815260200191508054600181600116156101000203166002900480156110545780601f1061102957610100808354040283529160200191611054565b820191906000526020600020905b81548152906001019060200180831161103757829003601f168201915b50509f5050505050505050505050505050505060405180910390a1505050565b60008081548092919060010191905055506000885111151561109557600080fd5b600087511115156110a557600080fd5b600086511115156110b557600080fd5b600085511115156110c557600080fd5b600081101515156110d557600080fd5b60003390506101606040519081016040528060005481526020013373ffffffffffffffffffffffffffffffffffffffff168152602001600073ffffffffffffffffffffffffffffffffffffffff1681526020018481526020018381526020018a8152602001898152602001888152602001878152602001861515815260200185151581525060016000805481526020019081526020016000206000820151816000015560208201518160010160006101000a81548173ffffffffffffffffffffffffffffffffffffffff021916908373ffffffffffffffffffffffffffffffffffffffff16021790555060408201518160020160006101000a81548173ffffffffffffffffffffffffffffffffffffffff021916908373ffffffffffffffffffffffffffffffffffffffff160217905550606082015181600301556080820151816004015560a0820151816005019080519060200190611236929190611e8a565b5060c0820151816006019080519060200190611253929190611e8a565b5060e0820151816007019080519060200190611270929190611e8a565b5061010082015181600801908051906020019061128e929190611e8a565b506101208201518160090160006101000a81548160ff0219169083151502179055506101408201518160090160016101000a81548160ff0219169083151502179055509050507f83b7b53a3dfb6f1f8aaf956e58acf984f335cafcc292981580a64d734c6f6dac60005433600086868e8e8e8e8e8e604051808c81526020018b73ffffffffffffffffffffffffffffffffffffffff1673ffffffffffffffffffffffffffffffffffffffff1681526020018a73ffffffffffffffffffffffffffffffffffffffff1673ffffffffffffffffffffffffffffffffffffffff16815260200189815260200188815260200180602001806020018060200180602001871515151581526020018615151515815260200185810385528b818151815260200191508051906020019080838360005b838110156113d95780820151818401526020810190506113be565b50505050905090810190601f1680156114065780820380516001836020036101000a031916815260200191505b5085810384528a818151815260200191508051906020019080838360005b8381101561143f578082015181840152602081019050611424565b50505050905090810190601f16801561146c5780820380516001836020036101000a031916815260200191505b50858103835289818151815260200191508051906020019080838360005b838110156114a557808201518184015260208101905061148a565b50505050905090810190601f1680156114d25780820380516001836020036101000a031916815260200191505b50858103825288818151815260200191508051906020019080838360005b8381101561150b5780820151818401526020810190506114f0565b50505050905090810190601f1680156115385780820380516001836020036101000a031916815260200191505b509f5050505050505050505050505050505060405180910390a1505050505050505050565b6000600160008481526020019081526020016000206003015411151561158257600080fd5b61158a611dff565b600160008481526020019081526020016000206101606040519081016040529081600082015481526020016001820160009054906101000a900473ffffffffffffffffffffffffffffffffffffffff1673ffffffffffffffffffffffffffffffffffffffff1673ffffffffffffffffffffffffffffffffffffffff1681526020016002820160009054906101000a900473ffffffffffffffffffffffffffffffffffffffff1673ffffffffffffffffffffffffffffffffffffffff1673ffffffffffffffffffffffffffffffffffffffff1681526020016003820154815260200160048201548152602001600582018054600181600116156101000203166002900480601f01602080910402602001604051908101604052809291908181526020018280546001816001161561010002031660029004801561170d5780601f106116e25761010080835404028352916020019161170d565b820191906000526020600020905b8154815290600101906020018083116116f057829003601f168201915b50505050508152602001600682018054600181600116156101000203166002900480601f0160208091040260200160405190810160405280929190818152602001828054600181600116156101000203166002900480156117af5780601f10611784576101008083540402835291602001916117af565b820191906000526020600020905b81548152906001019060200180831161179257829003601f168201915b50505050508152602001600782018054600181600116156101000203166002900480601f0160208091040260200160405190810160405280929190818152602001828054600181600116156101000203166002900480156118515780601f1061182657610100808354040283529160200191611851565b820191906000526020600020905b81548152906001019060200180831161183457829003601f168201915b50505050508152602001600882018054600181600116156101000203166002900480601f0160208091040260200160405190810160405280929190818152602001828054600181600116156101000203166002900480156118f35780601f106118c8576101008083540402835291602001916118f3565b820191906000526020600020905b8154815290600101906020018083116118d657829003601f168201915b505050505081526020016009820160009054906101000a900460ff161515151581526020016009820160019054906101000a900460ff161515151581525050905081816040019073ffffffffffffffffffffffffffffffffffffffff16908173ffffffffffffffffffffffffffffffffffffffff168152505080600160008581526020019081526020016000206000820151816000015560208201518160010160006101000a81548173ffffffffffffffffffffffffffffffffffffffff021916908373ffffffffffffffffffffffffffffffffffffffff16021790555060408201518160020160006101000a81548173ffffffffffffffffffffffffffffffffffffffff021916908373ffffffffffffffffffffffffffffffffffffffff160217905550606082015181600301556080820151816004015560a0820151816005019080519060200190611a48929190611e8a565b5060c0820151816006019080519060200190611a65929190611e8a565b5060e0820151816007019080519060200190611a82929190611e8a565b50610100820151816008019080519060200190611aa0929190611e8a565b506101208201518160090160006101000a81548160ff0219169083151502179055506101408201518160090160016101000a81548160ff021916908315150217905550905050505050565b60016020528060005260406000206000915090508060000154908060010160009054906101000a900473ffffffffffffffffffffffffffffffffffffffff16908060020160009054906101000a900473ffffffffffffffffffffffffffffffffffffffff1690806003015490806004015490806005018054600181600116156101000203166002900480601f016020809104026020016040519081016040528092919081815260200182805460018160011615610100020316600290048015611bf55780601f10611bca57610100808354040283529160200191611bf5565b820191906000526020600020905b815481529060010190602001808311611bd857829003601f168201915b505050505090806006018054600181600116156101000203166002900480601f016020809104026020016040519081016040528092919081815260200182805460018160011615610100020316600290048015611c935780601f10611c6857610100808354040283529160200191611c93565b820191906000526020600020905b815481529060010190602001808311611c7657829003601f168201915b505050505090806007018054600181600116156101000203166002900480601f016020809104026020016040519081016040528092919081815260200182805460018160011615610100020316600290048015611d315780601f10611d0657610100808354040283529160200191611d31565b820191906000526020600020905b815481529060010190602001808311611d1457829003601f168201915b505050505090806008018054600181600116156101000203166002900480601f016020809104026020016040519081016040528092919081815260200182805460018160011615610100020316600290048015611dcf5780601f10611da457610100808354040283529160200191611dcf565b820191906000526020600020905b815481529060010190602001808311611db257829003601f168201915b5050505050908060090160009054906101000a900460ff16908060090160019054906101000a900460ff1690508b565b6101606040519081016040528060008152602001600073ffffffffffffffffffffffffffffffffffffffff168152602001600073ffffffffffffffffffffffffffffffffffffffff1681526020016000815260200160008152602001606081526020016060815260200160608152602001606081526020016000151581526020016000151581525090565b828054600181600116156101000203166002900490600052602060002090601f016020900481019282601f10611ecb57805160ff1916838001178555611ef9565b82800160010185558215611ef9579182015b82811115611ef8578251825591602001919060010190611edd565b5b509050611f069190611f0a565b5090565b611f2c91905b80821115611f28576000816000905550600101611f10565b5090565b9056fea165627a7a7230582080046a35af32ba55d61de555f472b0d90e7147f098199b5a06168880722b2d7b0029",
  "source": "pragma solidity ^0.5.0;\r\n\r\ncontract Marketplace {\r\n    uint public countListings = 0;\r\n    mapping(uint => Property) public listings;\r\n    struct Property {\r\n        uint id;\r\n        address payable currOwner;\r\n        address rentedBy;\r\n        uint priceForRent;\r\n        uint priceForSale;\r\n        string title;\r\n        string description;\r\n        string addrL1;\r\n        string pincode;\r\n        bool forSale;\r\n        bool forRent;\r\n    }\r\n    event propertyListed(\r\n        uint id,\r\n        address payable currOwner,\r\n        address rentedBy,\r\n        uint priceForRent,\r\n        uint priceForSale,\r\n        string title,\r\n        string description,\r\n        string addrL1,\r\n        string pincode,\r\n        bool forSale,\r\n        bool forRent\r\n    );\r\n\r\n    event propertyPurchased(\r\n        uint id,\r\n        address payable currOwner,\r\n        address rentedBy,\r\n        uint priceForRent,\r\n        uint priceForSale,\r\n        string title,\r\n        string description,\r\n        string addrL1,\r\n        string pincode,\r\n        bool forSale,\r\n        bool forRent\r\n    );\r\n\r\n    function createListing(\r\n        string memory _title,\r\n        string memory _description,\r\n        string memory _addrL1,\r\n        string memory _pincode,\r\n        bool _forSale,\r\n        bool _forRent,\r\n        uint _priceForRent,\r\n        uint _priceForSale\r\n    ) public {\r\n        countListings++;\r\n        require(bytes(_title).length > 0);\r\n        require(bytes(_description).length > 0);\r\n        require(bytes(_addrL1).length > 0);\r\n        require(bytes(_pincode).length > 0);\r\n        require(_priceForSale >= 0);\r\n\r\n        address payable _currOwner = msg.sender;\r\n\r\n        listings[countListings] = Property(\r\n            countListings,\r\n            msg.sender,\r\n            address(0),\r\n            _priceForRent,\r\n            _priceForSale,\r\n            _title,\r\n            _description,\r\n            _addrL1,\r\n            _pincode,\r\n            _forSale,\r\n            _forRent\r\n        );\r\n        emit propertyListed(\r\n            countListings,\r\n            msg.sender,\r\n            address(0),\r\n            _priceForRent,\r\n            _priceForSale,\r\n            _title,\r\n            _description,\r\n            _addrL1,\r\n            _pincode,\r\n            _forSale,\r\n            _forRent\r\n        );\r\n    }\r\n    //     function createProduct() public {\r\n    //     countListings++;\r\n\r\n    // }\r\n\r\n    function purchaceProperty(uint _id) public payable {\r\n        require(listings[_id].forSale == true);\r\n        Property memory _property = listings[_id];\r\n\r\n        address payable _seller = _property.currOwner;\r\n        _property.currOwner = msg.sender;\r\n        listings[_id] = _property;\r\n        address(_seller).transfer(msg.value);\r\n        emit propertyPurchased(\r\n            countListings,\r\n            listings[_id].currOwner,\r\n            listings[_id].rentedBy,\r\n            listings[_id].priceForRent,\r\n            listings[_id].priceForSale,\r\n            listings[_id].title,\r\n            listings[_id].description,\r\n            listings[_id].addrL1,\r\n            listings[_id].pincode,\r\n            listings[_id].forSale,\r\n            listings[_id].forRent\r\n        );\r\n    }\r\n        function rentProperty(uint _id, address _addr) public payable {\r\n        require(listings[_id].priceForRent>0);\r\n        Property memory _property = listings[_id];\r\n\r\n      \r\n        _property.rentedBy = _addr;\r\n        listings[_id] = _property;\r\n\r\n    }\r\n}\r\n",
  "sourcePath": "C:/Users/Sudeep/Desktop/IBC_Work/marketplace/src/contracts/Marketplace.sol",
  "compiler": {
    "name": "solc",
    "version": "0.5.0+commit.1d4f565a.Emscripten.clang"
  },
  "schemaVersion": "3.0.1",
  "updatedAt": "2021-12-14T15:33:47.204Z",
  "devdoc": {
    "methods": {}
  },
  "userdoc": {
    "methods": {}
  }
}