{
  "contractName": "Renting_System",
  "abi": [
    {
      "constant": true,
      "inputs": [],
      "name": "duration",
      "outputs": [
        {
          "name": "",
          "type": "uint256"
        }
      ],
      "payable": false,
      "stateMutability": "view",
      "type": "function",
      "signature": "0x0fb5a6b4"
    },
    {
      "constant": true,
      "inputs": [],
      "name": "beginRent",
      "outputs": [
        {
          "name": "",
          "type": "uint256"
        }
      ],
      "payable": false,
      "stateMutability": "view",
      "type": "function",
      "signature": "0x2aa0e067"
    },
    {
      "constant": true,
      "inputs": [],
      "name": "blockTime",
      "outputs": [
        {
          "name": "",
          "type": "uint256"
        }
      ],
      "payable": false,
      "stateMutability": "view",
      "type": "function",
      "signature": "0x48b15166"
    },
    {
      "constant": true,
      "inputs": [
        {
          "name": "",
          "type": "address"
        }
      ],
      "name": "rentpaidUntill",
      "outputs": [
        {
          "name": "",
          "type": "uint256"
        }
      ],
      "payable": false,
      "stateMutability": "view",
      "type": "function",
      "signature": "0x4ff0fe9b"
    },
    {
      "constant": true,
      "inputs": [],
      "name": "durationBlocks",
      "outputs": [
        {
          "name": "",
          "type": "uint256"
        }
      ],
      "payable": false,
      "stateMutability": "view",
      "type": "function",
      "signature": "0x65f6328f"
    },
    {
      "constant": true,
      "inputs": [],
      "name": "occupiedTill",
      "outputs": [
        {
          "name": "",
          "type": "uint256"
        }
      ],
      "payable": false,
      "stateMutability": "view",
      "type": "function",
      "signature": "0x6e56cb85"
    },
    {
      "constant": true,
      "inputs": [],
      "name": "monthlyBlocks",
      "outputs": [
        {
          "name": "",
          "type": "uint256"
        }
      ],
      "payable": false,
      "stateMutability": "view",
      "type": "function",
      "signature": "0x89bf6f44"
    },
    {
      "constant": true,
      "inputs": [],
      "name": "owner",
      "outputs": [
        {
          "name": "",
          "type": "address"
        }
      ],
      "payable": false,
      "stateMutability": "view",
      "type": "function",
      "signature": "0x8da5cb5b"
    },
    {
      "constant": true,
      "inputs": [],
      "name": "tenant",
      "outputs": [
        {
          "name": "",
          "type": "address"
        }
      ],
      "payable": false,
      "stateMutability": "view",
      "type": "function",
      "signature": "0xadf07791"
    },
    {
      "constant": true,
      "inputs": [],
      "name": "monthlyRent",
      "outputs": [
        {
          "name": "",
          "type": "uint256"
        }
      ],
      "payable": false,
      "stateMutability": "view",
      "type": "function",
      "signature": "0xe4cbecdf"
    },
    {
      "anonymous": false,
      "inputs": [
        {
          "indexed": false,
          "name": "_tenant",
          "type": "address"
        }
      ],
      "name": "TenantAdded",
      "type": "event",
      "signature": "0x89f271478204fff1a3475e8aa510f8b8fed8a595f71f89dccbcfeee5457d1ced"
    },
    {
      "anonymous": false,
      "inputs": [
        {
          "indexed": false,
          "name": "rent",
          "type": "uint256"
        }
      ],
      "name": "RentUpdated",
      "type": "event",
      "signature": "0xf5bf7272b02857f4b650b21c18a4d098cb8dafe9abfc9a2c6ace6b54921263e3"
    },
    {
      "anonymous": false,
      "inputs": [
        {
          "indexed": false,
          "name": "duration",
          "type": "uint256"
        }
      ],
      "name": "DurationSet",
      "type": "event",
      "signature": "0x234a8b70e70d5fc5ace24d19c8c988edfd5dc006d6f8356cab0273e2f084a909"
    },
    {
      "anonymous": false,
      "inputs": [
        {
          "indexed": false,
          "name": "Months",
          "type": "uint256"
        }
      ],
      "name": "PrePayRentLimit",
      "type": "event",
      "signature": "0x1d1af1f1728d1ca0d530bfe59b80a970a01e7e5a2d2314de288c9c29c5248ac4"
    },
    {
      "anonymous": false,
      "inputs": [
        {
          "indexed": false,
          "name": "date",
          "type": "uint256"
        },
        {
          "indexed": false,
          "name": "renter",
          "type": "address"
        },
        {
          "indexed": false,
          "name": "rentPaid",
          "type": "uint256"
        },
        {
          "indexed": false,
          "name": "rentedFrom",
          "type": "uint256"
        },
        {
          "indexed": false,
          "name": "rentedUntill",
          "type": "uint256"
        }
      ],
      "name": "Rental",
      "type": "event",
      "signature": "0xa57b05b8a9bb8dcd2b3f1e55a07e7d923111f309b19021ae3e590b910e4cdb47"
    },
    {
      "constant": false,
      "inputs": [
        {
          "name": "_mainPropertyOwner",
          "type": "address"
        },
        {
          "name": "_avgBlockTime",
          "type": "uint256"
        }
      ],
      "name": "createRentRelation",
      "outputs": [],
      "payable": true,
      "stateMutability": "payable",
      "type": "function",
      "signature": "0x8a4c458b"
    },
    {
      "constant": false,
      "inputs": [
        {
          "name": "_tenant",
          "type": "address"
        }
      ],
      "name": "addTenant",
      "outputs": [],
      "payable": true,
      "stateMutability": "payable",
      "type": "function",
      "signature": "0x75c8f04b"
    },
    {
      "constant": false,
      "inputs": [
        {
          "name": "_months",
          "type": "uint256"
        }
      ],
      "name": "advanceRent",
      "outputs": [],
      "payable": true,
      "stateMutability": "payable",
      "type": "function",
      "signature": "0x1effbbf8"
    },
    {
      "constant": false,
      "inputs": [
        {
          "name": "_rent",
          "type": "uint256"
        }
      ],
      "name": "setRent",
      "outputs": [],
      "payable": true,
      "stateMutability": "payable",
      "type": "function",
      "signature": "0xb12a6852"
    },
    {
      "constant": false,
      "inputs": [
        {
          "name": "_months",
          "type": "uint256"
        }
      ],
      "name": "payRent",
      "outputs": [],
      "payable": true,
      "stateMutability": "payable",
      "type": "function",
      "signature": "0xd9e8843f"
    }
  ],
  "bytecode": "0x608060405234801561001057600080fd5b50610e8b806100206000396000f3fe6080604052600436106100db576000357c0100000000000000000000000000000000000000000000000000000000900463ffffffff1680630fb5a6b4146100e05780631effbbf81461010b5780632aa0e0671461013957806348b15166146101645780634ff0fe9b1461018f57806365f6328f146101f45780636e56cb851461021f57806375c8f04b1461024a57806389bf6f441461028e5780638a4c458b146102b95780638da5cb5b14610307578063adf077911461035e578063b12a6852146103b5578063d9e8843f146103e3578063e4cbecdf14610411575b600080fd5b3480156100ec57600080fd5b506100f561043c565b6040518082815260200191505060405180910390f35b6101376004803603602081101561012157600080fd5b8101908080359060200190929190505050610442565b005b34801561014557600080fd5b5061014e6104e5565b6040518082815260200191505060405180910390f35b34801561017057600080fd5b506101796104eb565b6040518082815260200191505060405180910390f35b34801561019b57600080fd5b506101de600480360360208110156101b257600080fd5b81019080803573ffffffffffffffffffffffffffffffffffffffff1690602001909291905050506104f1565b6040518082815260200191505060405180910390f35b34801561020057600080fd5b50610209610509565b6040518082815260200191505060405180910390f35b34801561022b57600080fd5b5061023461050f565b6040518082815260200191505060405180910390f35b61028c6004803603602081101561026057600080fd5b81019080803573ffffffffffffffffffffffffffffffffffffffff169060200190929190505050610515565b005b34801561029a57600080fd5b506102a3610618565b6040518082815260200191505060405180910390f35b610305600480360360408110156102cf57600080fd5b81019080803573ffffffffffffffffffffffffffffffffffffffff1690602001909291908035906020019092919050505061061e565b005b34801561031357600080fd5b5061031c610696565b604051808273ffffffffffffffffffffffffffffffffffffffff1673ffffffffffffffffffffffffffffffffffffffff16815260200191505060405180910390f35b34801561036a57600080fd5b506103736106bc565b604051808273ffffffffffffffffffffffffffffffffffffffff1673ffffffffffffffffffffffffffffffffffffffff16815260200191505060405180910390f35b6103e1600480360360208110156103cb57600080fd5b81019080803590602001909291905050506106e2565b005b61040f600480360360208110156103f957600080fd5b810190808035906020019092919050505061077f565b005b34801561041d57600080fd5b50610426610e59565b6040518082815260200191505060405180910390f35b60025481565b600760009054906101000a900473ffffffffffffffffffffffffffffffffffffffff1673ffffffffffffffffffffffffffffffffffffffff163373ffffffffffffffffffffffffffffffffffffffff1614151561049e57600080fd5b60015481026003819055507f1d1af1f1728d1ca0d530bfe59b80a970a01e7e5a2d2314de288c9c29c5248ac46003546040518082815260200191505060405180910390a150565b60055481565b60005481565b60096020528060005260406000206000915090505481565b60035481565b60065481565b600760009054906101000a900473ffffffffffffffffffffffffffffffffffffffff1673ffffffffffffffffffffffffffffffffffffffff163373ffffffffffffffffffffffffffffffffffffffff1614151561057157600080fd5b80600860006101000a81548173ffffffffffffffffffffffffffffffffffffffff021916908373ffffffffffffffffffffffffffffffffffffffff1602179055507f89f271478204fff1a3475e8aa510f8b8fed8a595f71f89dccbcfeee5457d1ced81604051808273ffffffffffffffffffffffffffffffffffffffff1673ffffffffffffffffffffffffffffffffffffffff16815260200191505060405180910390a150565b60015481565b81600760006101000a81548173ffffffffffffffffffffffffffffffffffffffff021916908373ffffffffffffffffffffffffffffffffffffffff1602179055508060008190555060005462278d0081151561067657fe5b04600181905550600c600281905550600154600254026003819055505050565b600760009054906101000a900473ffffffffffffffffffffffffffffffffffffffff1681565b600860009054906101000a900473ffffffffffffffffffffffffffffffffffffffff1681565b600760009054906101000a900473ffffffffffffffffffffffffffffffffffffffff1673ffffffffffffffffffffffffffffffffffffffff163373ffffffffffffffffffffffffffffffffffffffff1614151561073e57600080fd5b806004819055507ff5bf7272b02857f4b650b21c18a4d098cb8dafe9abfc9a2c6ace6b54921263e3816040518082815260200191505060405180910390a150565b600860009054906101000a900473ffffffffffffffffffffffffffffffffffffffff1673ffffffffffffffffffffffffffffffffffffffff163373ffffffffffffffffffffffffffffffffffffffff161415156107db57600080fd5b6000600454820290506000600154830290508134141515610864576040517f08c379a000000000000000000000000000000000000000000000000000000000815260040180806020018281038252600e8152602001807f436865636b207468652072656e7400000000000000000000000000000000000081525060200191505060405180910390fd5b600060096000600860009054906101000a900473ffffffffffffffffffffffffffffffffffffffff1673ffffffffffffffffffffffffffffffffffffffff1673ffffffffffffffffffffffffffffffffffffffff168152602001908152602001600020541480156108d6575043600654105b1561094f5780430160096000600860009054906101000a900473ffffffffffffffffffffffffffffffffffffffff1673ffffffffffffffffffffffffffffffffffffffff1673ffffffffffffffffffffffffffffffffffffffff1681526020019081526020016000208190555043600581905550610cfc565b600060096000600860009054906101000a900473ffffffffffffffffffffffffffffffffffffffff1673ffffffffffffffffffffffffffffffffffffffff1673ffffffffffffffffffffffffffffffffffffffff168152602001908152602001600020541480156109c1575043600654115b15610a3e57806006540160096000600860009054906101000a900473ffffffffffffffffffffffffffffffffffffffff1673ffffffffffffffffffffffffffffffffffffffff1673ffffffffffffffffffffffffffffffffffffffff16815260200190815260200160002081905550600654600581905550610cfb565b4360096000600860009054906101000a900473ffffffffffffffffffffffffffffffffffffffff1673ffffffffffffffffffffffffffffffffffffffff1673ffffffffffffffffffffffffffffffffffffffff168152602001908152602001600020541115610b24578060096000600860009054906101000a900473ffffffffffffffffffffffffffffffffffffffff1673ffffffffffffffffffffffffffffffffffffffff1673ffffffffffffffffffffffffffffffffffffffff16815260200190815260200160002060008282540192505081905550600654600581905550610cfa565b4360096000600860009054906101000a900473ffffffffffffffffffffffffffffffffffffffff1673ffffffffffffffffffffffffffffffffffffffff1673ffffffffffffffffffffffffffffffffffffffff16815260200190815260200160002054108015610b95575043600654115b15610c1257806006540160096000600860009054906101000a900473ffffffffffffffffffffffffffffffffffffffff1673ffffffffffffffffffffffffffffffffffffffff1673ffffffffffffffffffffffffffffffffffffffff16815260200190815260200160002081905550600654600581905550610cf9565b4360096000600860009054906101000a900473ffffffffffffffffffffffffffffffffffffffff1673ffffffffffffffffffffffffffffffffffffffff1673ffffffffffffffffffffffffffffffffffffffff16815260200190815260200160002054108015610c83575043600654105b15610cf85780430160096000600860009054906101000a900473ffffffffffffffffffffffffffffffffffffffff1673ffffffffffffffffffffffffffffffffffffffff1673ffffffffffffffffffffffffffffffffffffffff16815260200190815260200160002081905550436005819055505b5b5b5b5b60096000600860009054906101000a900473ffffffffffffffffffffffffffffffffffffffff1673ffffffffffffffffffffffffffffffffffffffff1673ffffffffffffffffffffffffffffffffffffffff16815260200190815260200160002054600681905550600760009054906101000a900473ffffffffffffffffffffffffffffffffffffffff1673ffffffffffffffffffffffffffffffffffffffff166108fc349081150290604051600060405180830381858888f19350505050158015610dcc573d6000803e3d6000fd5b507fa57b05b8a9bb8dcd2b3f1e55a07e7d923111f309b19021ae3e590b910e4cdb47423334600554600654604051808681526020018573ffffffffffffffffffffffffffffffffffffffff1673ffffffffffffffffffffffffffffffffffffffff1681526020018481526020018381526020018281526020019550505050505060405180910390a1505050565b6004548156fea165627a7a723058204b862088485f76a219b2577ad6b9e68e3c251e3a378a3545230ab4b602c8ccdd0029",
  "source": "pragma solidity 0.5.0;\r\n\r\ncontract Renting_System {\r\n    \r\n\r\n    uint public blockTime;\r\n    uint public monthlyBlocks;\r\n    uint public duration;\r\n    uint public durationBlocks;\r\n    uint public monthlyRent;\r\n    uint public beginRent;\r\n    uint public occupiedTill;\r\n\r\n    address payable public owner ;              \r\n\taddress payable public tenant ; \r\n\r\n    mapping (address => uint) public rentpaidUntill; //Blocknumber untill the rent is paid.\r\n\r\n    event TenantAdded(address _tenant);\r\n    event RentUpdated(uint rent);\r\n    event DurationSet(uint duration);\r\n    event PrePayRentLimit (uint Months);\r\n    event Rental (uint date, address renter, uint rentPaid,uint rentedFrom, uint rentedUntill);\r\n\r\n\r\n    function createRentRelation (address payable _mainPropertyOwner, uint _avgBlockTime) public payable{\r\n\t\towner = _mainPropertyOwner;\r\n\t\tblockTime = _avgBlockTime;                       \r\n\t    monthlyBlocks = 60*60*24*30/blockTime;\r\n\t    duration = 12;                                   \r\n\t    durationBlocks = duration* monthlyBlocks;\r\n        \r\n\t}\r\n\r\n    modifier onlyOwner{\r\n        require(msg.sender == owner);\r\n        _;\r\n    }\r\n   \r\n    modifier onlyTenant{\r\n        require(msg.sender == tenant);\r\n        _;\r\n    }\r\n\r\n\tmodifier eligibleToPayRent{                             //only one tenant at a time can be allowed to pay rent.\r\n\t    require(msg.sender == tenant);\r\n\t    _;\r\n\t}\r\n   \r\n    // Owner Functions\r\n      \r\n    function addTenant(address payable _tenant) public onlyOwner payable{\r\n        tenant = _tenant;\r\n        emit TenantAdded(_tenant);\r\n    }\r\n\r\n    function advanceRent(uint _months) public onlyOwner payable{\r\n        durationBlocks = _months*monthlyBlocks;\r\n        emit PrePayRentLimit(durationBlocks);\r\n    }\r\n\r\n    function setRent(uint _rent) public onlyOwner payable{\r\n        monthlyRent = _rent;\r\n        emit RentUpdated(_rent);\r\n    }\r\n   \r\n    // Tenant Functions\r\n\r\n     function payRent(uint _months) public eligibleToPayRent payable{          //needs to be eligible to pay rent\r\n        uint _rentdue  = _months * monthlyRent;\r\n        uint  _additionalBlocks  = _months * monthlyBlocks;\r\n        require (msg.value == _rentdue, \"Check the rent\");     //sent in Ether has to be _rentdue; additional blocks for rental cannot be higher than limit.                                  //accumulate revenues\r\n    \r\n        if (rentpaidUntill[tenant] == 0 && occupiedTill < block.number) {         //hasn't rented yet & flat is empty\r\n            rentpaidUntill[tenant] = block.number + _additionalBlocks;              //rents from now on\r\n            beginRent = block.number;\r\n        }\r\n        else if (rentpaidUntill[tenant] == 0 && occupiedTill > block.number) {    //hasn't rented yet & flat is occupied\r\n            rentpaidUntill[tenant] = occupiedTill + _additionalBlocks;            //rents from when it is free\r\n            beginRent = occupiedTill;\r\n        }\r\n        else if ( rentpaidUntill[tenant] > block.number) {                          //is renting, contract is runing\r\n            rentpaidUntill[tenant] += _additionalBlocks;                            //rents from when it is free\r\n            beginRent = occupiedTill;\r\n        }\r\n        else if (rentpaidUntill[tenant] < block.number && occupiedTill>block.number) {    //has rented before & flat is occupied\r\n            rentpaidUntill[tenant] = occupiedTill +_additionalBlocks;                     //rents from when it is free\r\n            beginRent = occupiedTill;\r\n        }\r\n        else if (rentpaidUntill[tenant] < block.number && occupiedTill<block.number) {    //has rented before & flat is empty\r\n            rentpaidUntill[tenant] = block.number + _additionalBlocks;                      //rents from now on\r\n            beginRent = block.number;                                                     //has lived before and flat is empgy\r\n        }\r\n        occupiedTill  = rentpaidUntill[tenant];                                           //set new occupiedTill\r\n        owner.transfer(msg.value);\r\n        emit Rental (block.timestamp, msg.sender, msg.value,beginRent, occupiedTill);\r\n    }\r\n}",
  "sourcePath": "C:/Users/Sudeep/Desktop/IBC_Work/marketplace/src/contracts/Renting_system.sol",
  "compiler": {
    "name": "solc",
    "version": "0.5.0+commit.1d4f565a.Emscripten.clang"
  },
  "schemaVersion": "3.0.1",
  "updatedAt": "2021-12-14T07:15:11.051Z",
  "devdoc": {
    "methods": {}
  },
  "userdoc": {
    "methods": {}
  }
}