{
  "contractName": "Renting_System",
  "abi": [
    {
      "constant": true,
      "inputs": [],
      "name": "duration",
      "outputs": [
        {
          "name": "",
          "type": "uint256"
        }
      ],
      "payable": false,
      "stateMutability": "view",
      "type": "function",
      "signature": "0x0fb5a6b4"
    },
    {
      "constant": true,
      "inputs": [],
      "name": "beginRent",
      "outputs": [
        {
          "name": "",
          "type": "uint256"
        }
      ],
      "payable": false,
      "stateMutability": "view",
      "type": "function",
      "signature": "0x2aa0e067"
    },
    {
      "constant": true,
      "inputs": [],
      "name": "blockTime",
      "outputs": [
        {
          "name": "",
          "type": "uint256"
        }
      ],
      "payable": false,
      "stateMutability": "view",
      "type": "function",
      "signature": "0x48b15166"
    },
    {
      "constant": true,
      "inputs": [
        {
          "name": "",
          "type": "address"
        }
      ],
      "name": "rentpaidUntill",
      "outputs": [
        {
          "name": "",
          "type": "uint256"
        }
      ],
      "payable": false,
      "stateMutability": "view",
      "type": "function",
      "signature": "0x4ff0fe9b"
    },
    {
      "constant": true,
      "inputs": [],
      "name": "durationBlocks",
      "outputs": [
        {
          "name": "",
          "type": "uint256"
        }
      ],
      "payable": false,
      "stateMutability": "view",
      "type": "function",
      "signature": "0x65f6328f"
    },
    {
      "constant": true,
      "inputs": [],
      "name": "occupiedTill",
      "outputs": [
        {
          "name": "",
          "type": "uint256"
        }
      ],
      "payable": false,
      "stateMutability": "view",
      "type": "function",
      "signature": "0x6e56cb85"
    },
    {
      "constant": true,
      "inputs": [],
      "name": "monthlyBlocks",
      "outputs": [
        {
          "name": "",
          "type": "uint256"
        }
      ],
      "payable": false,
      "stateMutability": "view",
      "type": "function",
      "signature": "0x89bf6f44"
    },
    {
      "constant": true,
      "inputs": [],
      "name": "owner",
      "outputs": [
        {
          "name": "",
          "type": "address"
        }
      ],
      "payable": false,
      "stateMutability": "view",
      "type": "function",
      "signature": "0x8da5cb5b"
    },
    {
      "constant": true,
      "inputs": [],
      "name": "tenant",
      "outputs": [
        {
          "name": "",
          "type": "address"
        }
      ],
      "payable": false,
      "stateMutability": "view",
      "type": "function",
      "signature": "0xadf07791"
    },
    {
      "constant": true,
      "inputs": [],
      "name": "monthlyRent",
      "outputs": [
        {
          "name": "",
          "type": "uint256"
        }
      ],
      "payable": false,
      "stateMutability": "view",
      "type": "function",
      "signature": "0xe4cbecdf"
    },
    {
      "anonymous": false,
      "inputs": [
        {
          "indexed": false,
          "name": "_tenant",
          "type": "address"
        }
      ],
      "name": "TenantAdded",
      "type": "event",
      "signature": "0x89f271478204fff1a3475e8aa510f8b8fed8a595f71f89dccbcfeee5457d1ced"
    },
    {
      "anonymous": false,
      "inputs": [
        {
          "indexed": false,
          "name": "rent",
          "type": "uint256"
        }
      ],
      "name": "RentUpdated",
      "type": "event",
      "signature": "0xf5bf7272b02857f4b650b21c18a4d098cb8dafe9abfc9a2c6ace6b54921263e3"
    },
    {
      "anonymous": false,
      "inputs": [
        {
          "indexed": false,
          "name": "duration",
          "type": "uint256"
        }
      ],
      "name": "DurationSet",
      "type": "event",
      "signature": "0x234a8b70e70d5fc5ace24d19c8c988edfd5dc006d6f8356cab0273e2f084a909"
    },
    {
      "anonymous": false,
      "inputs": [
        {
          "indexed": false,
          "name": "Months",
          "type": "uint256"
        }
      ],
      "name": "PrePayRentLimit",
      "type": "event",
      "signature": "0x1d1af1f1728d1ca0d530bfe59b80a970a01e7e5a2d2314de288c9c29c5248ac4"
    },
    {
      "anonymous": false,
      "inputs": [
        {
          "indexed": false,
          "name": "date",
          "type": "uint256"
        },
        {
          "indexed": false,
          "name": "renter",
          "type": "address"
        },
        {
          "indexed": false,
          "name": "rentPaid",
          "type": "uint256"
        },
        {
          "indexed": false,
          "name": "rentedFrom",
          "type": "uint256"
        },
        {
          "indexed": false,
          "name": "rentedUntill",
          "type": "uint256"
        }
      ],
      "name": "Rental",
      "type": "event",
      "signature": "0xa57b05b8a9bb8dcd2b3f1e55a07e7d923111f309b19021ae3e590b910e4cdb47"
    },
    {
      "constant": false,
      "inputs": [
        {
          "name": "_avgBlockTime",
          "type": "uint256"
        },
        {
          "name": "_rent",
          "type": "uint256"
        },
        {
          "name": "_advanceRent",
          "type": "uint256"
        }
      ],
      "name": "initiate",
      "outputs": [],
      "payable": true,
      "stateMutability": "payable",
      "type": "function",
      "signature": "0xc99b5d47"
    },
    {
      "constant": false,
      "inputs": [
        {
          "name": "_tenant",
          "type": "address"
        }
      ],
      "name": "addTenant",
      "outputs": [],
      "payable": true,
      "stateMutability": "payable",
      "type": "function",
      "signature": "0x75c8f04b"
    },
    {
      "constant": false,
      "inputs": [
        {
          "name": "_months",
          "type": "uint256"
        }
      ],
      "name": "advanceRent",
      "outputs": [],
      "payable": true,
      "stateMutability": "payable",
      "type": "function",
      "signature": "0x1effbbf8"
    },
    {
      "constant": false,
      "inputs": [
        {
          "name": "_rent",
          "type": "uint256"
        }
      ],
      "name": "setRent",
      "outputs": [],
      "payable": true,
      "stateMutability": "payable",
      "type": "function",
      "signature": "0xb12a6852"
    },
    {
      "constant": true,
      "inputs": [],
      "name": "getTenant",
      "outputs": [
        {
          "name": "",
          "type": "address"
        }
      ],
      "payable": false,
      "stateMutability": "view",
      "type": "function",
      "signature": "0x0b3bb024"
    },
    {
      "constant": false,
      "inputs": [
        {
          "name": "_months",
          "type": "uint256"
        }
      ],
      "name": "payRent",
      "outputs": [],
      "payable": true,
      "stateMutability": "payable",
      "type": "function",
      "signature": "0xd9e8843f"
    }
  ],
  "bytecode": "0x608060405234801561001057600080fd5b50610e94806100206000396000f3fe6080604052600436106100e6576000357c0100000000000000000000000000000000000000000000000000000000900463ffffffff1680630b3bb024146100eb5780630fb5a6b4146101425780631effbbf81461016d5780632aa0e0671461019b57806348b15166146101c65780634ff0fe9b146101f157806365f6328f146102565780636e56cb851461028157806375c8f04b146102ac57806389bf6f44146102f05780638da5cb5b1461031b578063adf0779114610372578063b12a6852146103c9578063c99b5d47146103f7578063d9e8843f14610439578063e4cbecdf14610467575b600080fd5b3480156100f757600080fd5b50610100610492565b604051808273ffffffffffffffffffffffffffffffffffffffff1673ffffffffffffffffffffffffffffffffffffffff16815260200191505060405180910390f35b34801561014e57600080fd5b506101576104bc565b6040518082815260200191505060405180910390f35b6101996004803603602081101561018357600080fd5b81019080803590602001909291905050506104c2565b005b3480156101a757600080fd5b506101b0610510565b6040518082815260200191505060405180910390f35b3480156101d257600080fd5b506101db610516565b6040518082815260200191505060405180910390f35b3480156101fd57600080fd5b506102406004803603602081101561021457600080fd5b81019080803573ffffffffffffffffffffffffffffffffffffffff16906020019092919050505061051c565b6040518082815260200191505060405180910390f35b34801561026257600080fd5b5061026b610534565b6040518082815260200191505060405180910390f35b34801561028d57600080fd5b5061029661053a565b6040518082815260200191505060405180910390f35b6102ee600480360360208110156102c257600080fd5b81019080803573ffffffffffffffffffffffffffffffffffffffff169060200190929190505050610540565b005b3480156102fc57600080fd5b50610305610643565b6040518082815260200191505060405180910390f35b34801561032757600080fd5b50610330610649565b604051808273ffffffffffffffffffffffffffffffffffffffff1673ffffffffffffffffffffffffffffffffffffffff16815260200191505060405180910390f35b34801561037e57600080fd5b5061038761066f565b604051808273ffffffffffffffffffffffffffffffffffffffff1673ffffffffffffffffffffffffffffffffffffffff16815260200191505060405180910390f35b6103f5600480360360208110156103df57600080fd5b8101908080359060200190929190505050610695565b005b6104376004803603606081101561040d57600080fd5b810190808035906020019092919080359060200190929190803590602001909291905050506106d6565b005b6104656004803603602081101561044f57600080fd5b810190808035906020019092919050505061077a565b005b34801561047357600080fd5b5061047c610e62565b6040518082815260200191505060405180910390f35b6000600860009054906101000a900473ffffffffffffffffffffffffffffffffffffffff16905090565b60025481565b8060028190555060015481026003819055507f1d1af1f1728d1ca0d530bfe59b80a970a01e7e5a2d2314de288c9c29c5248ac46003546040518082815260200191505060405180910390a150565b60055481565b60005481565b60096020528060005260406000206000915090505481565b60035481565b60065481565b600760009054906101000a900473ffffffffffffffffffffffffffffffffffffffff1673ffffffffffffffffffffffffffffffffffffffff163373ffffffffffffffffffffffffffffffffffffffff1614151561059c57600080fd5b80600860006101000a81548173ffffffffffffffffffffffffffffffffffffffff021916908373ffffffffffffffffffffffffffffffffffffffff1602179055507f89f271478204fff1a3475e8aa510f8b8fed8a595f71f89dccbcfeee5457d1ced81604051808273ffffffffffffffffffffffffffffffffffffffff1673ffffffffffffffffffffffffffffffffffffffff16815260200191505060405180910390a150565b60015481565b600760009054906101000a900473ffffffffffffffffffffffffffffffffffffffff1681565b600860009054906101000a900473ffffffffffffffffffffffffffffffffffffffff1681565b806004819055507ff5bf7272b02857f4b650b21c18a4d098cb8dafe9abfc9a2c6ace6b54921263e3816040518082815260200191505060405180910390a150565b6000831115156106e557600080fd5b33600760006101000a81548173ffffffffffffffffffffffffffffffffffffffff021916908373ffffffffffffffffffffffffffffffffffffffff1602179055508260008190555060005462278d0081151561073d57fe5b04600181905550600c6002819055506001546002540260038190555061076282610695565b600081111561077557610774816104c2565b5b505050565b600860009054906101000a900473ffffffffffffffffffffffffffffffffffffffff1673ffffffffffffffffffffffffffffffffffffffff163373ffffffffffffffffffffffffffffffffffffffff161415156107d657600080fd5b60006004548202905060006001548302905081341480156107f957506003548111155b151561086d576040517f08c379a000000000000000000000000000000000000000000000000000000000815260040180806020018281038252600e8152602001807f436865636b207468652072656e7400000000000000000000000000000000000081525060200191505060405180910390fd5b600060096000600860009054906101000a900473ffffffffffffffffffffffffffffffffffffffff1673ffffffffffffffffffffffffffffffffffffffff1673ffffffffffffffffffffffffffffffffffffffff168152602001908152602001600020541480156108df575043600654105b156109585780430160096000600860009054906101000a900473ffffffffffffffffffffffffffffffffffffffff1673ffffffffffffffffffffffffffffffffffffffff1673ffffffffffffffffffffffffffffffffffffffff1681526020019081526020016000208190555043600581905550610d05565b600060096000600860009054906101000a900473ffffffffffffffffffffffffffffffffffffffff1673ffffffffffffffffffffffffffffffffffffffff1673ffffffffffffffffffffffffffffffffffffffff168152602001908152602001600020541480156109ca575043600654115b15610a4757806006540160096000600860009054906101000a900473ffffffffffffffffffffffffffffffffffffffff1673ffffffffffffffffffffffffffffffffffffffff1673ffffffffffffffffffffffffffffffffffffffff16815260200190815260200160002081905550600654600581905550610d04565b4360096000600860009054906101000a900473ffffffffffffffffffffffffffffffffffffffff1673ffffffffffffffffffffffffffffffffffffffff1673ffffffffffffffffffffffffffffffffffffffff168152602001908152602001600020541115610b2d578060096000600860009054906101000a900473ffffffffffffffffffffffffffffffffffffffff1673ffffffffffffffffffffffffffffffffffffffff1673ffffffffffffffffffffffffffffffffffffffff16815260200190815260200160002060008282540192505081905550600654600581905550610d03565b4360096000600860009054906101000a900473ffffffffffffffffffffffffffffffffffffffff1673ffffffffffffffffffffffffffffffffffffffff1673ffffffffffffffffffffffffffffffffffffffff16815260200190815260200160002054108015610b9e575043600654115b15610c1b57806006540160096000600860009054906101000a900473ffffffffffffffffffffffffffffffffffffffff1673ffffffffffffffffffffffffffffffffffffffff1673ffffffffffffffffffffffffffffffffffffffff16815260200190815260200160002081905550600654600581905550610d02565b4360096000600860009054906101000a900473ffffffffffffffffffffffffffffffffffffffff1673ffffffffffffffffffffffffffffffffffffffff1673ffffffffffffffffffffffffffffffffffffffff16815260200190815260200160002054108015610c8c575043600654105b15610d015780430160096000600860009054906101000a900473ffffffffffffffffffffffffffffffffffffffff1673ffffffffffffffffffffffffffffffffffffffff1673ffffffffffffffffffffffffffffffffffffffff16815260200190815260200160002081905550436005819055505b5b5b5b5b60096000600860009054906101000a900473ffffffffffffffffffffffffffffffffffffffff1673ffffffffffffffffffffffffffffffffffffffff1673ffffffffffffffffffffffffffffffffffffffff16815260200190815260200160002054600681905550600760009054906101000a900473ffffffffffffffffffffffffffffffffffffffff1673ffffffffffffffffffffffffffffffffffffffff166108fc349081150290604051600060405180830381858888f19350505050158015610dd5573d6000803e3d6000fd5b507fa57b05b8a9bb8dcd2b3f1e55a07e7d923111f309b19021ae3e590b910e4cdb47423334600554600654604051808681526020018573ffffffffffffffffffffffffffffffffffffffff1673ffffffffffffffffffffffffffffffffffffffff1681526020018481526020018381526020018281526020019550505050505060405180910390a1505050565b6004548156fea165627a7a72305820bf0e4560f50400c2078c7e2e2b4585f2904571f22d40572b0bb1c65d9a816ab00029",
  "source": "pragma solidity ^0.5.0;\r\n\r\ncontract Renting_System {\r\n\r\n    uint public blockTime;\r\n    uint public monthlyBlocks;\r\n    uint public duration;\r\n    uint public durationBlocks;\r\n    uint public monthlyRent;\r\n    uint public beginRent;\r\n    uint public occupiedTill;\r\n\r\n    address payable public owner ;              \r\n\taddress payable public tenant ; \r\n\r\n    mapping (address => uint) public rentpaidUntill; //Blocknumber untill the rent is paid.\r\n\r\n    event TenantAdded(address _tenant);\r\n    event RentUpdated(uint rent);\r\n    event DurationSet(uint duration);\r\n    event PrePayRentLimit (uint Months);\r\n    event Rental (uint date, address renter, uint rentPaid,uint rentedFrom, uint rentedUntill);\r\n\r\n    function initiate (uint _avgBlockTime, uint _rent, uint _advanceRent) public payable{\r\n        require(_avgBlockTime>0);\r\n\t\towner = address(msg.sender);\r\n\t\tblockTime = _avgBlockTime;                       \r\n\t    monthlyBlocks = 60*60*24*30/blockTime;\r\n\t    duration = 12;                                   \r\n\t    durationBlocks = duration* monthlyBlocks;\r\n        setRent(_rent);\r\n        if(_advanceRent>0){\r\n            advanceRent(_advanceRent);\r\n        }\r\n\r\n\t}\r\n\r\n    modifier onlyOwner{\r\n        require(msg.sender == owner);\r\n        _;\r\n    }\r\n   \r\n    modifier onlyTenant{\r\n        require(msg.sender == tenant);\r\n        _;\r\n    }\r\n\r\n\tmodifier eligibleToPayRent{                             //only one tenant at a time can be allowed to pay rent.\r\n\t    require(msg.sender == tenant);\r\n\t    _;\r\n\t}\r\n   \r\n    // Owner Functions\r\n      \r\n    function addTenant(address payable _tenant) public onlyOwner payable{\r\n        tenant = _tenant;\r\n        emit TenantAdded(_tenant);\r\n    }\r\n\r\n    function advanceRent(uint _months) public payable{\r\n        duration = _months;\r\n        durationBlocks = _months*monthlyBlocks;\r\n        emit PrePayRentLimit(durationBlocks);\r\n    }\r\n\r\n    function setRent(uint _rent)  public payable{\r\n        monthlyRent = _rent;\r\n        emit RentUpdated(_rent);\r\n    }\r\n    function getTenant() public view returns (address){\r\n        return tenant;\r\n    }\r\n   \r\n    // Tenant Functions\r\n\r\n     function payRent(uint _months) public eligibleToPayRent payable{          //needs to be eligible to pay rent\r\n        uint _rentdue  = _months * monthlyRent;\r\n        uint  _additionalBlocks  = _months * monthlyBlocks;\r\n        require (msg.value == _rentdue && _additionalBlocks <= durationBlocks, \"Check the rent\");     \r\n\r\n        if (rentpaidUntill[tenant] == 0 && occupiedTill < block.number) {         //hasn't rented yet & flat is empty\r\n            rentpaidUntill[tenant] = block.number + _additionalBlocks;              //rents from now on\r\n            beginRent = block.number;\r\n        }\r\n        else if (rentpaidUntill[tenant] == 0 && occupiedTill > block.number) {    //hasn't rented yet & flat is occupied\r\n            rentpaidUntill[tenant] = occupiedTill + _additionalBlocks;            //rents from when it is free\r\n            beginRent = occupiedTill;\r\n        }\r\n        else if ( rentpaidUntill[tenant] > block.number) {                          //is renting, contract is runing\r\n            rentpaidUntill[tenant] += _additionalBlocks;                            //rents from when it is free\r\n            beginRent = occupiedTill;\r\n        }\r\n        else if (rentpaidUntill[tenant] < block.number && occupiedTill>block.number) {    //has rented before & flat is occupied\r\n            rentpaidUntill[tenant] = occupiedTill +_additionalBlocks;                     //rents from when it is free\r\n            beginRent = occupiedTill;\r\n        }\r\n        else if (rentpaidUntill[tenant] < block.number && occupiedTill<block.number) {    //has rented before & flat is empty\r\n            rentpaidUntill[tenant] = block.number + _additionalBlocks;                      //rents from now on\r\n            beginRent = block.number;                                                     //has lived before and flat is empgy\r\n        }\r\n        occupiedTill  = rentpaidUntill[tenant];                                           //set new occupiedTill\r\n        owner.transfer(msg.value);                                                        //transfer the fee to the owner\r\n        emit Rental (block.timestamp, msg.sender, msg.value,beginRent, occupiedTill);\r\n    }\r\n}",
  "sourcePath": "C:/Users/Sudeep/Desktop/IBC_Work/marketplace/src/contracts/Renting_system.sol",
  "compiler": {
    "name": "solc",
    "version": "0.5.0+commit.1d4f565a.Emscripten.clang"
  },
  "schemaVersion": "3.0.1",
  "updatedAt": "2021-12-14T13:32:47.603Z",
  "devdoc": {
    "methods": {}
  },
  "userdoc": {
    "methods": {}
  }
}